:100000000C9434000C9451000C9451000C94510049
:100010000C9451000C9451000C9451000C9451001C
:100020000C9451000C9451000C9451000C9451000C
:100030000C9451000C9451000C9451000C945100FC
:100040000C94CB020C9451000C9451000C94510070
:100050000C9451000C9451000C9451000C945100DC
:100060000C9451000C94510011241FBECFEFD8E026
:10007000DEBFCDBF11E0A0E0B1E0ECE6F9E002C0E8
:1000800005900D92AE31B107D9F711E0AEE1B1E0C4
:1000900001C01D92A535B107E1F70E94A5030C949C
:1000A000B4040C9400000F931F93CF93DF93C9E027
:1000B000D1E001E010E02BB1C801099002C0880F27
:1000C000991F0A94E2F7282B2BB964E670E080E0D0
:1000D00090E00E94440381E0CD30D80761F7C9E089
:1000E000D1E001E010E02BB1C801099002C0880FF7
:1000F000991F0A94E2F7809582238BB964E670E039
:1001000080E090E00E94440381E0CD30D80759F7A9
:10011000DF91CF911F910F910895EF92FF920F936E
:100120001F93CF93DF9305E011E08EE3E82E81E08B
:10013000F82EC0E0D0E0BE018BE491E00E94A7025F
:10014000F80181938F01BE016B5F7F4F8BE491E0DB
:100150000E94A702F70181937F012196C430D10547
:1001600051F7DF91CF911F910F91FF90EF900C9479
:100170005300EF92FF920F931F93CF93DF9395E07D
:10018000E92E91E0F92E0EE311E0C0E0D0E0F70196
:1001900041917F01BE018BE491E00E94AA02F80127
:1001A00041918F01BE016B5F7F4F8BE491E00E9414
:1001B000AA022196C430D10551F7DF91CF911F914A
:1001C0000F91FF90EF900C9453008B3069F020F466
:1001D000873059F493E009C08D3021F08E3029F436
:1001E00090E003C091E001C092E0892F089585E07E
:1001F0000E94AE020E94B2038AB18C6F8AB984B1A8
:10020000806F84B985B18F6085B908950F931F936E
:10021000CF93DF930E9415036093430170934401D1
:10022000809345019093460182E00E94AE0220E057
:1002300034E0281B390B30932E0120932D0180E0F0
:100240000E94AE02FC0126E0F595E7952A95E1F7BC
:10025000E35FFE4F808180932C0181E00E94AE021B
:1002600033E0959587953A95E1F7982F80932B0188
:1002700020912A0180912C0128131092280180914D
:10028000290189131092270183B18F708093250172
:100290008F3009F484C090912401891751F00E9495
:1002A000150360931E0170931F01809320019093AA
:1002B00021010E94150300911E0110911F01209140
:1002C000200130912101601B710B820B930B6A316D
:1002D00071058105910508F476C0809125010E9481
:1002E000E500809323010E9415036093330170930E
:1002F0003401809335019093360100912F011091C4
:1003000030012091310130913201DC01CB01801BA1
:10031000910BA20BB30B8A3F9105A105B10598F48F
:100320008091220181110FC021E020932201809150
:10033000230190E0FC01EB5FFE4F2083FC01E25CB7
:10034000FE4F108240C08091260181110FC081E0D4
:100350008093260190912C0190932A0190912B017A
:10036000909329018093280180932701809128018F
:10037000811108C0E0912301F0E0EB5FFE4F809116
:100380002C0180838091270181111DC0E091230100
:10039000F0E0E25CFE4F80912B01808314C08091DD
:1003A000330190913401A0913501B09136018093D1
:1003B0002F0190933001A0933101B093320110923C
:1003C0002601109222011B9902C01A9BADC01899F8
:1003D00002C0199BACC08091430190914401A0914F
:1003E0004501B0914601409147015091480160910B
:1003F000490170914A018C019D01041B150B260BCC
:10040000370B40912D0150912E0160E070E04017B4
:1004100051076207730758F421E020933B01809352
:10042000470190934801A0934901B0934A018091FC
:100430003B01813009F047C010923B0180933D01A0
:100440006FE770E080E090E00E94BA0360934201A1
:100450005A9A10923C0101E010E0C0913C01609179
:100460003701709138018091390190913A01C4307F
:10047000E8F4D0E0FE01EB5FFE4F208130E040E089
:1004800050E00E94DE03672B682B692B49F49091A2
:100490004201FE01E25CFE4F8081981708F04AC0DD
:1004A00080913C018F5F80933C01D7CFDC01CB0171
:1004B0000196A11DB11D8093370190933801A0933F
:1004C0003901B0933A0180913D01813021F580914D
:1004D000430190914401A0914501B09146014091A2
:1004E0004701509148016091490170914A01841B74
:1004F000950BA60BB70B4091040150E060E070E053
:10050000481759076A077B0730F48BB183708BB9A2
:100510008BB910923D018091250180932401DF91D8
:10052000CF911F910F9108950E94B90050CF0E9462
:100530008D0051CF2BB1C75FDE4FC801088002C0CC
:10054000880F991F0A94E2F7282B2BB9A9CFCB016A
:100550000C949604CB01642F0C949E048E3008F00A
:100560008E50877020911D0190E4299F90011124E5
:10057000822B80937C0080917A00806480937A0043
:1005800080917A0086FDFCCF8091780020917900DF
:1005900090E0922B08951F920F920FB60F921124A4
:1005A0002F933F938F939F93AF93BF9380914D0170
:1005B00090914E01A0914F01B091500130914C01AA
:1005C00023E0230F2D3720F40196A11DB11D05C096
:1005D00026E8230F0296A11DB11D20934C018093A4
:1005E0004D0190934E01A0934F01B0935001809123
:1005F000510190915201A0915301B0915401019683
:10060000A11DB11D8093510190935201A0935301FC
:10061000B0935401BF91AF919F918F913F912F91D2
:100620000F900FBE0F901F9018952FB7F894609100
:100630004D0170914E0180914F01909150012FBF5B
:1006400008953FB7F8948091510190915201A09183
:100650005301B091540126B5A89B05C02F3F19F056
:100660000196A11DB11D3FBF6627782F892F9A2FB4
:10067000620F711D811D911D42E0660F771F881F5B
:10068000991F4A95D1F70895CF92DF92EF92FF928A
:10069000CF93DF936B017C010E942103EB01C11416
:1006A000D104E104F10479F00E9421036C1B7D0B5D
:1006B000683E7340A0F381E0C81AD108E108F10850
:1006C000C851DC4FECCFDF91CF91FF90EF90DF90DE
:1006D000CF900895789484B5826084BD84B581609C
:1006E00084BD85B5826085BD85B5816085BDEEE63A
:1006F000F0E0808181608083E1E8F0E01082808119
:1007000082608083808181608083E0E8F0E0808186
:1007100081608083E1EBF0E0808184608083E0EBA6
:10072000F0E0808181608083EAE7F0E0808184608E
:1007300080838081826080838081816080838081EA
:10074000806880831092C10008950E946A030E940D
:10075000F700C0E0D0E00E9406012097E1F30E947C
:100760000000F9CF009729F0BC0180E090E00C94E4
:100770008D040895CF93DF9300D000D0CDB7DEB7BE
:100780009B01AC01611571058105910569F06983D3
:100790003A834B835C830E94880429813A814B8190
:1007A0005C810E94000403C060E070E0CB010F9008
:1007B0000F900F900F90DF91CF910895A1E21A2E24
:1007C000AA1BBB1BFD010DC0AA1FBB1FEE1FFF1FF5
:1007D000A217B307E407F50720F0A21BB30BE40B45
:1007E000F50B661F771F881F991F1A9469F760958C
:1007F0007095809590959B01AC01BD01CF01089546
:10080000052E97FB1EF400940E94170457FD07D095
:100810000E94DE0307FC03D04EF40C94170450959D
:100820004095309521953F4F4F4F5F4F08959095DC
:100830008095709561957F4F8F4F9F4F08950E94CF
:100840002A04A59F900DB49F900DA49F800D911D2B
:1008500011240895A29FB001B39FC001A39F700D02
:10086000811D1124911DB29F700D811D1124911DB8
:1008700008958F929F92AF92BF92CF92DF92EF92A4
:10088000FF92CF93DF93EC01688179818A819B810C
:10089000611571058105910521F464E279ED8BE51F
:1008A00097E02DE133EF41E050E00E940004490160
:1008B0005A019B01AC01A7EAB1E40E941F046B013D
:1008C0007C01ACEEB4EFA50194010E94AF04C60E0A
:1008D000D71EE81EF91EF7FE06C081E0C81AD1082F
:1008E000E10880E8F80AC882D982EA82FB82C7015F
:1008F000B6019F77DF91CF91FF90EF90DF90CF907F
:10090000BF90AF909F908F9008950E9439040895F2
:1009100080E091E00E943904089560930001709393
:10092000010180930201909303010895F999FECF8C
:1009300092BD81BDF89A992780B50895262FF9991F
:10094000FECF1FBA92BD81BD20BD0FB6F894FA9AB2
:10095000F99A0FBE01960895B7FF0C941F040E94E8
:0C0960001F04821B930B0895F894FFCF36
:10096C00010000001401010101030405060102024B
:0E097C00030405060708090A0D10204080013B
:00000001FF
