:100000000C945D000C9485000C9485000C94850084
:100010000C9485000C9485000C9485000C9485004C
:100020000C9485000C9485000C9485000C9485003C
:100030000C9485000C9485000C9485000C9485002C
:100040000C94B2030C9485000C9431050C94740547
:100050000C9485000C9485000C9485000C9485000C
:100060000C9485000C94850000000007000201003C
:100070000003040600000000000000000102040864
:100080001020408001020408102001020408102002
:10009000040404040404040402020202020203032E
:1000A0000303030300000000250028002B000000CC
:1000B0000000240027002A00300611241FBECFEFC5
:1000C000D8E0DEBFCDBF11E0A0E0B1E0E0E7FFE0A7
:1000D00002C005900D92A033B107D9F712E0A0E35A
:1000E000B1E001C01D92AD30B107E1F710E0CAEBFD
:1000F000D0E004C02297FE010E942807C83BD10728
:10010000C9F70E948C040C94B6070C940000CF939E
:10011000DF9310923401C1E0D0E0E0913401E4308B
:10012000C8F42BB1F0E0E75FFE4FCE01008002C0C3
:10013000880F991F0A94E2F7282B2BB964E670E028
:1001400080E090E00E942B04809134018F5F8093C7
:100150003401E3CF10923401C1E0D0E0E0913401EA
:10016000E430D0F42BB1F0E0E75FFE4FCE01008029
:1001700002C0880F991F0A94E2F7809582238BB9F9
:1001800064E670E080E090E00E942B0480913401EE
:100190008F5F80933401E2CFDF91CF910895CF93A9
:1001A000DF9310923401C0913401C430E0F4D0E008
:1001B000BE0189E591E00E94F602CB5FDE4F8883A5
:1001C000C0913401D0E0BE016B5F7F4F89E591E0C3
:1001D0000E94F602C45BDE4F8883809134018F5FFA
:1001E00080933401E0CFDF91CF910C94870010927F
:1001F0003401609134016430E0F470E0FB01EB5FA6
:10020000FE4F408189E591E00E94F902609134013E
:1002100070E0FB01E45BFE4F6B5F7F4F408189E53F
:1002200091E00E94F902809134018F5F8093340144
:10023000E0CF0C9487008B3069F020F4873059F4BC
:1002400093E009C08D3021F08E3029F490E003C096
:1002500091E001C092E0892F089585E00E94FD029F
:100260000E94860661E082E00E94430361E083E031
:100270000E94430361E084E00E94430361E085E063
:100280000E94430361E086E00E94430360E088E04F
:100290000E94430360E089E00E94430360E08AE03B
:1002A0000E94430360E08BE00E94430361E088E02A
:1002B0000E947C0361E089E00E947C0361E08AE0A7
:1002C0000E947C0361E08BE00E947C0340E855E2E1
:1002D00060E070E083E691E00E94AF051092330188
:1002E00008950F931F93CF93DF930E94FC036093B5
:1002F000510170935201809353019093540182E015
:100300000E94FD0220E034E0281B390B30933D01B0
:1003100020933C0180E00E94FD02FC0186E0F595FF
:10032000E7958A95E1F7E25FFE4F808180933B017C
:1003300081E00E94FD0223E0959587952A95E1F7DB
:10034000382F80933A014091350120913B014111B2
:1003500004C02093390180933801809139018213C0
:10036000109237018091380183131092360183B1C6
:100370008F70809332018F3009F458C00E941B01A6
:10038000809331010E94FC0360934201709343010A
:10039000809344019093450100913E0110913F01EB
:1003A0002091400130914101DC01CB01801B910B78
:1003B000A20BB30B8A3F9105A105B10598F480917A
:1003C000300181110FC021E0209330018091310173
:1003D00090E0FC01EB5FFE4F2083FC01E45BFE4FED
:1003E000108238C080913501811107C081E080936F
:1003F0003501809337018093360180913701811157
:1004000008C0E0913101F0E0EB5FFE4F80913B01CD
:1004100080838091360181111DC0E0913101F0E0AF
:10042000E45BFE4F80913A01808314C080914201C9
:1004300090914301A0914401B091450180933E0108
:1004400090933F01A0934001B09341011092350178
:10045000109230011B9902C01A9BB0C0189902C0BB
:10046000199BAFC08091510190915201A09153010D
:10047000B09154014091550150915601609157013E
:10048000709158018C019D01041B150B260B370B35
:1004900040913C0150913D0160E070E040175107F0
:1004A0006207730758F421E020934A0180935501B5
:1004B00090935601A0935701B093580180914A013F
:1004C000813009F052C010924A0180934B016FE7CE
:1004D00070E080E090E00E948E06609350012BB1A6
:1004E00081E090E000900D0102C0880F991F0A94EE
:1004F000E2F7282B2BB91092340101E010E0C091F3
:1005000034016091460170914701809148019091BA
:100510004901C430E8F4D0E0FE01EB5FFE4F2081DA
:1005200030E040E050E00E94DA06672B682B692B30
:1005300049F490915001FE01E45BFE4F80819817D1
:1005400008F042C0809134018F5F80933401D7CF8F
:10055000DC01CB010196A11DB11D80934601909352
:100560004701A0934801B093490180914B0181302C
:10057000C1F58091510190915201A0915301B09128
:10058000540140915501509156016091570170916D
:100590005801841B950BA60BB70B4091040150E04A
:1005A00060E070E0481759076A077B07D0F48BB109
:1005B00083708BB98BB910924B0113C00E94F70066
:1005C0004DCF0E94CF004ECF2BB1C75FDE4FC80189
:1005D000088002C0880F991F0A94E2F7282B2BB9D4
:1005E000B1CFDF91CF911F910F910895CB010C9462
:1005F0009807CB01642F0C94A0078E3008F08E5022
:10060000877020911E0190E4299F90011124822B74
:1006100080937C0080917A00806480937A0080913E
:100620007A0086FDFCCF809178002091790090E0DF
:10063000922B0895833081F028F4813099F0823034
:10064000A1F008958630A9F08730B9F08430D1F454
:10065000809180008F7D03C0809180008F77809390
:100660008000089584B58F7702C084B58F7D84BDE6
:1006700008958091B0008F7703C08091B0008F7D86
:100680008093B0000895CF93DF9390E0FC01E4588D
:10069000FF4F2491FC01E057FF4F8491882349F1DB
:1006A00090E0880F991FFC01E255FF4FA591B4918E
:1006B0008C559F4FFC01C591D4919FB7611108C023
:1006C000F8948C91209582238C93888182230AC090
:1006D000623051F4F8948C91322F309583238C93AF
:1006E0008881822B888304C0F8948C91822B8C9310
:1006F0009FBFDF91CF9108950F931F93CF93DF9307
:100700001F92CDB7DEB7282F30E0F901E859FF4F2F
:100710008491F901E458FF4F1491F901E057FF4F1C
:1007200004910023C9F0882321F069830E941A03F1
:100730006981E02FF0E0EE0FFF1FEC55FF4FA59110
:10074000B4919FB7F8948C91611103C010958123E7
:1007500001C0812B8C939FBF0F90DF91CF911F9190
:100760000F9108951F920F920FB60F9211242F939D
:100770003F938F939F93AF93BF9380915B01909131
:100780005C01A0915D01B0915E0130915A0123E0BE
:10079000230F2D3720F40196A11DB11D05C026E8B9
:1007A000230F0296A11DB11D20935A0180935B0176
:1007B00090935C01A0935D01B0935E0180915F0115
:1007C00090916001A0916101B09162010196A11D1B
:1007D000B11D80935F0190936001A0936101B0937C
:1007E0006201BF91AF919F918F913F912F910F9097
:1007F0000FBE0F901F9018952FB7F89460915B0172
:1008000070915C0180915D0190915E012FBF089510
:100810003FB7F89480915F0190916001A0916101D0
:10082000B091620126B5A89B05C02F3F19F0019633
:10083000A11DB11D3FBF6627782F892F9A2F620F08
:10084000711D811D911D42E0660F771F881F991F42
:100850004A95D1F70895CF92DF92EF92FF92CF930E
:10086000DF936B017C010E940804EB01C114D104E9
:10087000E104F10479F00E9408046C1B7D0B683ED2
:100880007340A0F381E0C81AD108E108F108C8510B
:10089000DC4FECCFDF91CF91FF90EF90DF90CF90C6
:1008A0000895789484B5826084BD84B5816084BDE8
:1008B00085B5826085BD85B5816085BDEEE6F0E0D9
:1008C000808181608083E1E8F0E010828081826035
:1008D0008083808181608083E0E8F0E080818160B6
:1008E0008083E1EBF0E0808184608083E0EBF0E0E6
:1008F000808181608083EAE7F0E08081846080838A
:100900008081826080838081816080838081806833
:1009100080831092C10008950E9451040E942D010D
:10092000CBE6D5E00E9471012097E1F30E946B05B0
:10093000F9CFFC0124853585F901E05CFF4F80810A
:100940009181F901EE5BFF4F20813181821B930B76
:100950008F7399270895FC0184859585FC01E05CDF
:10096000FF4F40815181FC01EE5BFF4F20813181BF
:100970004217530741F00190F081E02DE80FF91F75
:10098000808190E008958FEF9FEF0895FC018485AA
:100990009585FC01E05CFF4F40815181FC01EE5BDD
:1009A000FF4F208131814217530779F0A081B18137
:1009B000A80FB91F8C91208131812F5F3F4F2F737A
:1009C00033273183208390E008958FEF9FEF0895C0
:1009D000FC0181A1882329F0A489B5898C9186FF27
:1009E000FBCF11A20895CF93DF93FC0126853785B5
:1009F000D901A05CBF4F8D919C91119701968F7387
:100A00009927E901CE5BDF4F48815981841795070B
:100A1000D9F30D90BC91A02DA20FB31F6C93A685A6
:100A2000B785A05CBF4F11969C938E93A689B7891A
:100A30002C9181E090E0078C02C0880F991F0A94E6
:100A4000E2F7282B2C9381E081A30488F589E02D1F
:100A500080818064808381E090E0DF91CF91089570
:100A600008951F920F920FB60F9211242F933F9368
:100A70004F938F939F93EF93FF938091C00082FDDC
:100A80001CC04091C6008091090290910A02019613
:100A90008F73992720910B0230910C0282179307D4
:100AA00071F0E0910902F0910A02E753FE4F408392
:100AB00090930A028093090202C08091C600FF91C0
:100AC000EF919F918F914F913F912F910F900FBE7A
:100AD0000F901F90189583E691E00E949904892B4E
:100AE00011F00C94300508951F920F920FB60F92DB
:100AF00011242F933F938F939F93EF93FF93209114
:100B0000C5013091C6018091C7019091C801281795
:100B1000390731F48091C1008F7D8093C10014C0EA
:100B2000E091C701F091C801EB57FE4F2081809101
:100B3000C7019091C80101968F7399279093C801BE
:100B40008093C7012093C600FF91EF919F918F91F1
:100B50003F912F910F900FBE0F901F901895CF923D
:100B6000DF92EF92FF92CF93DF93EC016A017B015A
:100B7000411581EE580761057105F9F0EC89FD8991
:100B800081E090E008A002C0880F991F0A94E2F764
:100B9000808360E079E08DE390E0A70196010E94F8
:100BA000DA06215031094109510956954795379583
:100BB0002795211580E1380798F0EC89FD8910828E
:100BC00060E874E88EE190E0A70196010E94DA06E1
:100BD0002150310941095109569547953795279577
:100BE000E889F9893083EA89FB89208319A2EE8993
:100BF000FF89408181E090E09C010C8C02C0220FB3
:100C0000331F0A94E2F7422B4083EE89FF8940812B
:100C10009C010D8C02C0220F331F0A94E2F7422B75
:100C20004083EE89FF8940819C010E8C02C0220F17
:100C3000331F0A94E2F7422B4083EE89FF8920811B
:100C40000F8C02C0880F991F0A94E2F780958223C7
:100C50008083DF91CF91FF90EF90DF90CF90089548
:100C6000109266011092650188EE93E0A0E0B0E07A
:100C70008093670190936801A0936901B0936A0122
:100C800083E291E0909364018093630189EC91E0A9
:100C90009093700180936F0185E891E090937201C9
:100CA0008093710185EC90E09093740180937301BF
:100CB00084EC90E0909376018093750180EC90E055
:100CC000909378018093770181EC90E090937A0182
:100CD0008093790182EC90E090937C0180937B017A
:100CE00086EC90E090937E0180937D0184E0809378
:100CF0007F0183E08093800187E08093810185E01C
:100D00008093820181E0809383010895009729F008
:100D1000BC0180E090E00C948F070895CF93DF939F
:100D200000D000D0CDB7DEB79B01AC0161157105D5
:100D30008105910569F069833A834B835C830E9446
:100D40008A0729813A814B815C810E94FC0603C09D
:100D500060E070E0CB010F900F900F900F90DF914B
:100D6000CF910895CF92DF92EF92FF920F931F934E
:100D7000CF93DF936C017A01EB01E60EF71E00E0E2
:100D800010E0CE15DF0561F06991D601ED91FC917F
:100D90000190F081E02DC6010995080F191FF1CFD0
:100DA000C801DF91CF911F910F91FF90EF90DF90DD
:100DB000CF900895A1E21A2EAA1BBB1BFD010DC006
:100DC000AA1FBB1FEE1FFF1FA217B307E407F507FB
:100DD00020F0A21BB30BE40BF50B661F771F881FD7
:100DE000991F1A9469F760957095809590959B016D
:100DF000AC01BD01CF010895052E97FB1EF40094B0
:100E00000E94130757FD07D00E94DA0607FC03D0A3
:100E10004EF40C94130750954095309521953F4F13
:100E20004F4F5F4F089590958095709561957F4FD6
:100E30008F4F9F4F08950E942C07A59F900DB49F40
:100E4000900DA49F800D911D11240895EE0FFF1F9A
:100E50000590F491E02D0994A29FB001B39FC001C9
:100E6000A39F700D811D1124911DB29F700D811DD6
:100E70001124911D08958F929F92AF92BF92CF92AD
:100E8000DF92EF92FF92CF93DF93EC01688179813B
:100E90008A819B81611571058105910521F464E2C8
:100EA00079ED8BE597E02DE133EF41E050E00E94D2
:100EB000FC0649015A019B01AC01A7EAB1E40E947A
:100EC0001B076B017C01ACEEB4EFA50194010E94FD
:100ED000B107C60ED71EE81EF91EF7FE06C081E058
:100EE000C81AD108E10880E8F80AC882D982EA82E3
:100EF000FB82C701B6019F77DF91CF91FF90EF9002
:100F0000DF90CF90BF90AF909F908F9008950E94F8
:100F10003B07089580E091E00E943B0708956093AD
:100F200000017093010180930201909303010895E1
:100F3000F999FECF92BD81BDF89A992780B50895A1
:100F4000262FF999FECF1FBA92BD81BD20BD0FB6E5
:100F5000F894FA9AF99A0FBE01960895B7FF0C9487
:100F60001B070E941B07821B930B0895F894FFCF69
:100F70000100000014010101010304050602010241
:100F8000030405060708090A0D10204080800100AF
:100F9000000000F304B2069904C604AB04E80400A0
:00000001FF
