:100000000C945E000C9486000C9486000C94860080
:100010000C9486000C9486000C9486000C94860048
:100020000C9486000C9486000C9486000C94860038
:100030000C9486000C9486000C9486000C94860028
:100040000C9482030C9486000C9401050C944405D6
:100050000C9486000C9486000C9486000C94860008
:100060000C9486000C94860000000007000201003A
:100070000003040600000000000000000102040864
:100080001020408001020408102001020408102002
:10009000040404040404040402020202020203032E
:1000A0000303030300000000250028002B000000CC
:1000B0000000240027002A00B502000611241FBEFC
:1000C000CFEFD8E0DEBFCDBF11E0A0E0B1E0E0E1CE
:1000D000FFE002C005900D92A234B107D9F712E0FB
:1000E000A2E4B1E001C01D92A931B107E1F710E02F
:1000F000CCEBD0E004C02297FE010E94F806C83B7A
:10010000D107C9F70E945C040C9486070C94000088
:10011000CF93DF9310924401C0914401C43078F42E
:10012000D0E0BE0185E691E00E94C602CB5FDE4FC3
:100130008883809144018F5F80934401EDCF1092BA
:100140004401C0914401C43088F4D0E0BE016B5F2B
:100150007F4F85E691E00E94C602C85ADE4F888331
:10016000809144018F5F80934401EBCFDF91CF9169
:1001700008958BB18C6F8BB98BB964EF71E080E01F
:1001800090E00E94FB038BB183708BB98BB964EF55
:1001900071E080E090E00E94FB038BB18C6F8BB923
:1001A0008BB964EF71E080E090E00E94FB038BB1BB
:1001B00083708BB98BB9089520914701211110C02C
:1001C0008B3069F020F4873059F493E009C08D300A
:1001D00021F08E3029F490E003C091E001C092E05C
:1001E000892F90E0089585E00E94CD020E94560676
:1001F00061E082E00E94130361E083E00E94130348
:1002000061E084E00E94130361E085E00E94130333
:1002100061E086E00E94130360E088E00E9413031F
:1002200060E089E00E94130360E08AE00E9413030B
:1002300060E08BE00E94130361E088E00E944C03C1
:1002400061E089E00E944C0361E08AE00E944C0377
:1002500061E08BE00E944C0340E855E260E070E012
:100260008FE691E00E947F051092430108950F935D
:100270001F93CF93DF9380914301811105C00E94AA
:10028000880081E0809343010E94CC0360935D016C
:1002900070935E0180935F019093600182E00E9401
:1002A000CD0220E034E0281B390B30934D01209320
:1002B0004C0180E00E94CD02FC0186E0F595E795B7
:1002C0008A95E1F7EE0FFF1FE05FFE4F808180937C
:1002D0004B0181E00E94CD02EC0123E0D595C7954A
:1002E0002A95E1F79C2FC0934A0180914501009126
:1002F0004B01811104C000934901C0934801209132
:1003000049012013109247012091480129131092AE
:10031000460113B11F70109342011F3001F181118A
:1003200007C081E080934501809347018093460197
:1003300080914701811107C0812F0E94DC00FC01E0
:10034000EB5FFE4F00838091460181110AC0812F2F
:100350000E94DC00885A9E4FFC01C08302C01092AC
:10036000450183B190E00090090102C09595879501
:100370000A94E2F780FF2EC080915D0190915E01AA
:10038000A0915F01B09160014091610150916201C3
:1003900060916301709164018C019D01041B150B38
:1003A000260B370B40914C0150914D0160E070E0FD
:1003B00040175107620773070CF046C021E02093F5
:1003C00052018093610190936201A0936301B09305
:1003D00064013AC083B190E000900A0102C0959593
:1003E00087950A94E2F780FDC7CF0E94B90010926A
:1003F000440160914401643078F470E0FB01EB5FEC
:10040000FE4F408185E691E00E94C902809144013F
:100410008F5F80934401EDCF1092440160914401BD
:10042000643008F0A9CF70E0FB01E85AFE4F6B5F23
:100430007F4F408185E691E00E94C902809144018E
:100440008F5F80934401EACF80915201813009F09F
:1004500051C010925201809353016FE770E080E029
:1004600090E00E945E0660935C012BB181E090E019
:1004700000900F0102C0880F991F0A94E2F7282B01
:100480002BB91092440101E010E0C0914401609149
:100490004E0170914F018091500190915101C430F3
:1004A000E0F4D0E0FE01EB5FFE4F208130E040E061
:1004B00050E00E94CC06672B682B692B41F4909189
:1004C0005C01FE01E85AFE4F80819817E0F58091AB
:1004D00044018F5F80934401D8CFDC01CB010196AA
:1004E000A11DB11D80934E0190934F01A093500127
:1004F000B093510180915301813091F580915D015C
:1005000090915E01A0915F01B09160014091610105
:10051000509162016091630170916401841B950B9D
:10052000A60BB70B4091040150E060E070E0481763
:1005300059076A077B07A4F48BB183708BB98BB919
:10054000109253010DC02BB1CC5ADE4FC801088068
:1005500002C0880F991F0A94E2F7282B2BB9B7CF56
:10056000DF91CF911F910F91089580910E0180939B
:10057000540180910D018093550180910C0180936D
:10058000560180910B01809357010895CB010C9483
:100590006807CB01642F0C9470078E3008F08E50E2
:1005A00087702091300190E4299F90011124822BC3
:1005B00080937C0080917A00806480937A0080919F
:1005C0007A0086FDFCCF809178002091790090E040
:1005D000922B0895833081F028F4813099F0823095
:1005E000A1F008958630A9F08730B9F08430D1F4B5
:1005F000809180008F7D03C0809180008F778093F1
:100600008000089584B58F7702C084B58F7D84BD46
:1006100008958091B0008F7703C08091B0008F7DE6
:100620008093B0000895CF93DF9390E0FC01E458ED
:10063000FF4F2491FC01E057FF4F8491882349F13B
:1006400090E0880F991FFC01E255FF4FA591B491EE
:100650008C559F4FFC01C591D4919FB7611108C083
:10066000F8948C91209582238C93888182230AC0F0
:10067000623051F4F8948C91322F309583238C930F
:100680008881822B888304C0F8948C91822B8C9370
:100690009FBFDF91CF9108950F931F93CF93DF9367
:1006A0001F92CDB7DEB7282F30E0F901E859FF4F90
:1006B0008491F901E458FF4F1491F901E057FF4F7D
:1006C00004910023C9F0882321F069830E94EA0283
:1006D0006981E02FF0E0EE0FFF1FEC55FF4FA59171
:1006E000B4919FB7F8948C91611103C01095812348
:1006F00001C0812B8C939FBF0F90DF91CF911F91F1
:100700000F9108951F920F920FB60F9211242F93FD
:100710003F938F939F93AF93BF9380916701909185
:100720006801A0916901B0916A013091660123E0EE
:10073000230F2D3720F40196A11DB11D05C026E819
:10074000230F0296A11DB11D2093660180936701BE
:1007500090936801A0936901B0936A0180916B0145
:1007600090916C01A0916D01B0916E010196A11D57
:10077000B11D80936B0190936C01A0936D01B093B8
:100780006E01BF91AF919F918F913F912F910F90EB
:100790000FBE0F901F9018952FB7F89460916701C6
:1007A000709168018091690190916A012FBF08954D
:1007B0003FB7F89480916B0190916C01A0916D010D
:1007C000B0916E0126B5A89B05C02F3F19F0019688
:1007D000A11DB11D3FBF6627782F892F9A2F620F69
:1007E000711D811D911D42E0660F771F881F991FA3
:1007F0004A95D1F70895CF92DF92EF92FF92CF936F
:10080000DF936B017C010E94D803EB01C114D1047A
:10081000E104F10479F00E94D8036C1B7D0B683E63
:100820007340A0F381E0C81AD108E108F108C8516B
:10083000DC4FECCFDF91CF91FF90EF90DF90CF9026
:100840000895789484B5826084BD84B5816084BD48
:1008500085B5826085BD85B5816085BDEEE6F0E039
:10086000808181608083E1E8F0E010828081826095
:100870008083808181608083E0E8F0E08081816016
:100880008083E1EBF0E0808184608083E0EBF0E046
:10089000808181608083EAE7F0E0808184608083EA
:1008A0008081826080838081816080838081806894
:1008B00080831092C10008950E9421040E94F300D9
:1008C000CBE3D5E00E9437012097E1F30E943B057E
:1008D000F9CFFC0124853585F901E05CFF4F80816B
:1008E0009181F901EE5BFF4F20813181821B930BD7
:1008F0008F7399270895FC0184859585FC01E05C40
:10090000FF4F40815181FC01EE5BFF4F208131811F
:100910004217530741F00190F081E02DE80FF91FD5
:10092000808190E008958FEF9FEF0895FC0184850A
:100930009585FC01E05CFF4F40815181FC01EE5B3D
:10094000FF4F208131814217530779F0A081B18197
:10095000A80FB91F8C91208131812F5F3F4F2F73DA
:1009600033273183208390E008958FEF9FEF089520
:10097000FC0181A1882329F0A489B5898C9186FF87
:10098000FBCF11A20895CF93DF93FC012685378515
:10099000D901A05CBF4F8D919C91119701968F73E7
:1009A0009927E901CE5BDF4F48815981841795076C
:1009B000D9F30D90BC91A02DA20FB31F6C93A68507
:1009C000B785A05CBF4F11969C938E93A689B7897B
:1009D0002C9181E090E0078C02C0880F991F0A9447
:1009E000E2F7282B2C9381E081A30488F589E02D80
:1009F00080818064808381E090E0DF91CF910895D1
:100A000008951F920F920FB60F9211242F933F93C8
:100A10004F938F939F93EF93FF938091C00082FD3C
:100A20001CC04091C600809115029091160201965B
:100A30008F7399272091170230911802821793071C
:100A400071F0E0911502F0911602EB52FE4F4083D7
:100A5000909316028093150202C08091C600FF9108
:100A6000EF919F918F914F913F912F910F900FBEDA
:100A70000F901F9018958FE691E00E946904892BD2
:100A800011F00C94000508951F920F920FB60F926B
:100A900011242F933F938F939F93EF93FF93209174
:100AA000D1013091D2018091D3019091D4012817C6
:100AB000390731F48091C1008F7D8093C10014C04B
:100AC000E091D301F091D401EF56FE4F2081809147
:100AD000D3019091D40101968F7399279093D401FB
:100AE0008093D3012093C600FF91EF919F918F9146
:100AF0003F912F910F900FBE0F901F901895CF929E
:100B0000DF92EF92FF92CF93DF93EC016A017B01BA
:100B1000411581EE580761057105F9F0EC89FD89F1
:100B200081E090E008A002C0880F991F0A94E2F7C4
:100B3000808360E079E08DE390E0A70196010E9458
:100B4000AA06215031094109510956954795379513
:100B50002795211580E1380798F0EC89FD891082EE
:100B600060E874E88EE190E0A70196010E94AA0671
:100B700021503109410951095695479537952795D7
:100B8000E889F9893083EA89FB89208319A2EE89F3
:100B9000FF89408181E090E09C010C8C02C0220F13
:100BA000331F0A94E2F7422B4083EE89FF8940818C
:100BB0009C010D8C02C0220F331F0A94E2F7422BD6
:100BC0004083EE89FF8940819C010E8C02C0220F78
:100BD000331F0A94E2F7422B4083EE89FF8920817C
:100BE0000F8C02C0880F991F0A94E2F78095822328
:100BF0008083DF91CF91FF90EF90DF90CF900895A9
:100C0000109272011092710188EE93E0A0E0B0E0C2
:100C10008093730190937401A0937501B093760152
:100C200085E391E09093700180936F0185ED91E0F1
:100C300090937C0180937B0181E991E090937E0108
:100C400080937D0185EC90E09093800180937F01FB
:100C500084EC90E0909382018093810180EC90E09D
:100C6000909384018093830181EC90E090938601BE
:100C70008093850182EC90E09093880180938701B6
:100C800086EC90E090938A018093890184E08093C0
:100C90008B0183E080938C0187E080938D0185E058
:100CA00080938E0181E080938F010895009729F051
:100CB000BC0180E090E00C945F070895CF93DF9330
:100CC00000D000D0CDB7DEB79B01AC016115710536
:100CD0008105910569F069833A834B835C830E94A7
:100CE0005A0729813A814B815C810E94CC0603C05E
:100CF00060E070E0CB010F900F900F900F90DF91AC
:100D0000CF910895CF92DF92EF92FF920F931F93AE
:100D1000CF93DF936C017A01EB01E60EF71E00E042
:100D200010E0CE15DF0561F06991D601ED91FC91DF
:100D30000190F081E02DC6010995080F191FF1CF30
:100D4000C801DF91CF911F910F91FF90EF90DF903D
:100D5000CF900895A1E21A2EAA1BBB1BFD010DC066
:100D6000AA1FBB1FEE1FFF1FA217B307E407F5075B
:100D700020F0A21BB30BE40BF50B661F771F881F37
:100D8000991F1A9469F760957095809590959B01CD
:100D9000AC01BD01CF010895052E97FB1EF4009410
:100DA0000E94E30657FD07D00E94AA0607FC03D065
:100DB0004EF40C94E30650954095309521953F4FA5
:100DC0004F4F5F4F089590958095709561957F4F37
:100DD0008F4F9F4F08950E94FC06A59F900DB49FD2
:100DE000900DA49F800D911D11240895EE0FFF1FFB
:100DF0000590F491E02D0994A29FB001B39FC0012A
:100E0000A39F700D811D1124911DB29F700D811D36
:100E10001124911D08958F929F92AF92BF92CF920D
:100E2000DF92EF92FF92CF93DF93EC01688179819B
:100E30008A819B81611571058105910521F464E228
:100E400079ED8BE597E02DE133EF41E050E00E9432
:100E5000CC0649015A019B01AC01A7EAB1E40E940A
:100E6000EB066B017C01ACEEB4EFA50194010E948E
:100E70008107C60ED71EE81EF91EF7FE06C081E0E8
:100E8000C81AD108E10880E8F80AC882D982EA8243
:100E9000FB82C701B6019F77DF91CF91FF90EF9062
:100EA000DF90CF90BF90AF909F908F9008950E9459
:100EB0000B07089580E091E00E940B07089560936E
:100EC0000001709301018093020190930301089542
:100ED000F999FECF92BD81BDF89A992780B5089502
:100EE000262FF999FECF1FBA92BD81BD20BD0FB646
:100EF000F894FA9AF99A0FBE01960895B7FF0C94E8
:100F0000EB060E94EB06821B930B0895F894FFCF2B
:100F1000010000001401010101030206050403029F
:100F2000010002000300040005000600070008009D
:100F300009000A000D001000200040008000800021
:100F40000100000000C3048206690496047B04B813
:020F500004009B
:00000001FF
