:100000000C945D000C9485000C9485000C94850084
:100010000C9485000C9485000C9485000C9485004C
:100020000C9485000C9485000C9485000C9485003C
:100030000C9485000C9485000C9485000C9485002C
:100040000C94FD050C9485000C9485000C9485009F
:100050000C9485000C9485000C9485000C9485000C
:100060000C9485000C94850000000007000201003C
:100070000003040600000000000000000102040864
:100080001020408001020408102001020408102002
:10009000040404040404040402020202020203032E
:1000A0000303030300000000250028002B000000CC
:1000B0000000240027002A006A0411241FBECFEF8D
:1000C000D8E0DEBFCDBF11E0A0E0B1E0E2EBF0E1AF
:1000D00002C005900D92A033B107D9F711E0A0E35B
:1000E000B1E001C01D92A239B107E1F710E0CAEBFF
:1000F000D0E004C02297FE010E94D807C83BD10778
:10010000C9F70E94D7060C9457080C9400000F936F
:100110001F93CF93DF93CAE1D1E001E010E02BB150
:10012000C801099002C0880F991F0A94E2F7282B92
:100130002BB964E670E080E090E00E94760681E0F2
:10014000CE31D80761F7CAE1D1E001E010E02BB170
:10015000C801099002C0880F991F0A94E2F78095A0
:1001600082238BB964E670E080E090E00E9476061E
:1001700081E0CE31D80759F7DF91CF911F910F91D0
:100180000895EF92FF920F931F93CF93DF9306E1B1
:1001900011E08BE6E82E81E0F82EC0E0D0E0BE0151
:1001A00088E891E00E940F05F80181938F01BE015C
:1001B0006B5F7F4F88E891E00E940F05F701819304
:1001C0007F012196C430D10551F7DF91CF911F9166
:1001D0000F91FF90EF900C948700EF92FF920F9396
:1001E0001F93CF93DF9396E1E92E91E0F92E0BE672
:1001F00011E0C0E0D0E0F70141917F01BE0188E845
:1002000091E00E941205F80141918F01BE016B5FE0
:100210007F4F88E891E00E9412052196C430D105F5
:1002200051F7DF91CF911F910F91FF90EF900C94B8
:1002300087008B3F69F020F4873F59F493E009C0B1
:100240008D3F21F08E3F29F490E003C091E001C082
:1002500092E0892F08950F931F93CF93DF93EC01C2
:1002600068EE73E00E947207462F406162E180E30E
:1002700091E00E947504CE0164E670E00E9472076E
:10028000CB010AE010E0B8010E947207482F4062DB
:1002900062E180E391E00E947504CE01B8010E9402
:1002A0007207C82FCB01B8010E947207482F406423
:1002B00062E180E391E00E9475044C2F406862E1A6
:1002C00080E391E00E94750440E062E180E391E008
:1002D000DF91CF911F910F910C94750486179707AA
:1002E00039F09C01261B370B2930310508F4CB016E
:1002F000089585E00E9448050E94E4068AB18C6F4B
:100300008AB960E07FEF80E391E00E94D40460E06E
:100310007FEF80E391E00C94E5044F925F927F922F
:10032000AF92BF92CF92DF92EF92FF920F931F9303
:10033000CF93DF930E944706609380017093810101
:100340008093820190938301C0914E01D0914F011F
:1003500082E00E944805BE0120E034E0A901481B6C
:10036000590BCA010E946E0190934F0180934E0178
:1003700080E00E944805FC01B6E0F595E795BA9546
:10038000E1F7E25EFE4F808180934D0181E00E94A3
:100390004805C3E095958795CA95E1F780934C0190
:1003A000682F70E080E090E01F921F921F9224E679
:1003B0002F93A12CB12C65011FE7E12EF12C00E059
:1003C00010E020E030E0A9010E94100760934C018A
:1003D000109265010F900F900F900F90E0916501C2
:1003E000E43008F041C0F0E0EE0FFF1FE35AFE4F8B
:1003F00040805180B20180E090E020914E01309128
:100400004F012A50310989011F921F921F932F9388
:10041000EAE0AE2EB12CC12CD12CEE24EA9413E0EC
:10042000F12E00E010E020E030E0A9010E9410076A
:100430009B01AC01C09165018C2F90E0FC01EE0F97
:10044000FF1FEE0FFF1FEA5FFE4FDC01AA5EBE4FEB
:10045000AC91B0E00E9457076083718382839383DD
:10046000CF5FC0936501B6CF90914B0180914D0154
:1004700098131092490190914A0180914C01981370
:100480001092480163E180E391E00E94F6048093BA
:1004900044018F3F09F499C090914501891751F0AB
:1004A0000E94470660933F01709340018093410191
:1004B000909342010E94470600913F011091400134
:1004C0002091410130914201601B710B820B930B13
:1004D0006A3171058105910508F491C0809144014C
:1004E0000E941901809343010E94470660935401C2
:1004F00070935501809356019093570100915001DC
:10050000109151012091520130915301DC01CB0136
:10051000801B910BA20BB30B8A3F9105A105B1057E
:1005200098F48091470181110FC021E02093470189
:100530008091430190E0FC01EA5EFE4F2083FC01C4
:10054000E559FE4F10825BC08091460181110FC0BA
:1005500081E08093460190914D0190934B019091E1
:100560004C0190934A018093490180934801809106
:10057000490181110BC080914D01E0914301F0E0F0
:10058000EA5EFE4F808390E00E942B01809148013B
:10059000811135C080913C01E0914301811108C077
:1005A00080914C01F0E0E559FE4F808390E025C03A
:1005B000CE2FD0E081E00E944805FE01EE0FFF1F24
:1005C000E35AFE4F918380831AC080915401909129
:1005D0005501A0915601B09157018093500190931D
:1005E0005101A0935201B093530110924601109211
:1005F00047018091390190913A010E942B0180912D
:1006000044018C7051F480913D01811108C00E9419
:10061000ED0081E080933D0102C010923D01809188
:100620004401837051F480913E01811108C00E9401
:10063000C10081E080933E0102C010923E01809192
:100640004401897069F480913B0181110BC0809154
:100650003C0191E0892780933C0190933B0102C0CB
:1006600010923B018091800190918101A0918201C3
:10067000B091830140918401509185016091860180
:10068000709187018C019D01041B150B260B370B04
:1006900040914E0150914F0160E070E040175107CA
:1006A0006207730758F421E020935C018093840172
:1006B00090938501A0938601B0938701C0915C015E
:1006C000C13009F049C010925C0164E670E080E03E
:1006D00090E00E94EC0660936F015A9AC093660105
:1006E0001092650101E010E077247394C0916501D8
:1006F000609158017091590180915A0190915B016C
:10070000C430E8F4D0E0FE01EA5EFE4F208130E024
:1007100040E050E00E948607672B682B692B49F464
:1007200090916F01FE01E559FE4F8081981708F006
:10073000ABC0809165018F5F80936501D7CFDC01ED
:10074000CB010196A11DB11D8093580190935901D1
:10075000A0935A01B0935B011092650121E030E053
:10076000E0916501E43008F045C0F0E0DF01A959EF
:10077000BE4F8C918130C1F58F01000F111F000F0A
:10078000111FA80140595E4F809180019091810115
:10079000A0918201B0918301EA01488159816A8167
:1007A0007B81841B950BA60BB70BE801CA5FDE4F5C
:1007B000488159816A817B81481759076A077B07FD
:1007C00098F44BB1E65EFE4FC901008002C0880F6D
:1007D000991F0A94E2F7809584238BB9E091650113
:1007E000F0E0E959FE4F1082809165018F5F8093A0
:1007F0006501B6CF80916601813021F5809180013D
:1008000090918101A0918201B09183014091840176
:10081000509185016091860170918701841B950B31
:10082000A60BB70B409104015091050160E070E008
:10083000481759076A077B0728F480913C0181110A
:1008400001C05A98809144018093450120914E0146
:1008500030914F0140E050E060E67AEE80E090E0B9
:100860000E94A80730933A0120933901DF91CF917C
:100870001F910F91FF90EF90DF90CF90BF90AF90BE
:100880007F905F904F9008952BB1C65EDE4FC801F8
:10089000088002C0880F991F0A94E2F7282B2BB911
:1008A000E0916501F0E0DF01A959BE4F7C92EE0FA7
:1008B000FF1FEE0FFF1FE059FE4F809184019091C2
:1008C0008501A0918601B091870180839183A283E5
:1008D000B3832FCF60E080E391E00C9491048EBD50
:1008E0000DB407FEFDCF8EB50895CF93DF9300D0F2
:1008F000CDB7DEB72A98FC018081880F80644A83D7
:1009000069830E946F046981862F0E946F044A8167
:10091000842F0E946F042A9A0F900F90DF91CF913D
:100920000895CF93DF93EC0168838FEF9FEF9A8355
:10093000898318861F821C821B821E821D820E9450
:10094000160582E00E943A0581E00E942C0580E0B5
:100950000E94350548E06AE0CE01DF91CF910C940A
:100960007504CF93DF9300D01F92CDB7DEB72A98DE
:10097000FC018081880F80644A835B8369830E94C5
:100980006F046981862F0E946F044A81842F0E9420
:100990006F045B81852F0E946F042A9A0F900F903D
:1009A0000F90DF91CF9108950F931F93CF93DF9313
:1009B000EC018B01AB0160E00E94B1041A83098352
:1009C000DF91CF911F910F9108950F931F93CF93B4
:1009D000DF93EC018B01AB016CE00E94B1041C833E
:1009E0000B83DF91CF911F910F910895CF93DF93E8
:1009F0001F92CDB7DEB72A98FC018081880F8164F1
:100A000069830E946F046981862F0E946F0480E0D1
:100A10000E946F042A9A0F90DF91CF910895CB0125
:100A20000C943908CB01642F0C94410861E08AE0F2
:100A30000E94C70561E08AE00E948E058CB5806146
:100A40008CBD8CB580648CBD61E08DE00E948E050C
:100A500061E08BE00C948E05811103C08CB580623F
:100A600002C08CB58F7D8CBD08959CB5937F982B6B
:100A70009CBD08952CB5982F93702C7F922B9CBD14
:100A80009DB582FB882780F99E7F982B9DBD089598
:100A90008E3008F08E50877020912E0190E4299FAF
:100AA00090011124822B80937C0080917A008064D5
:100AB00080937A0080917A0086FDFCCF8091780047
:100AC0002091790090E0922B0895833081F028F4F2
:100AD000813099F08230A1F008958630A9F08730F6
:100AE000B9F08430D1F4809180008F7D03C0809173
:100AF00080008F7780938000089584B58F7702C03F
:100B000084B58F7D84BD08958091B0008F7703C038
:100B10008091B0008F7D8093B0000895CF93DF93D4
:100B200090E0FC01E458FF4F2491FC01E057FF4F97
:100B30008491882349F190E0880F991FFC01E255C8
:100B4000FF4FA591B4918C559F4FFC01C591D49155
:100B50009FB7611108C0F8948C91209582238C93E3
:100B6000888182230AC0623051F4F8948C91322F2C
:100B7000309583238C938881822B888304C0F894DA
:100B80008C91822B8C939FBFDF91CF9108950F930F
:100B90001F93CF93DF931F92CDB7DEB7282F30E09E
:100BA000F901E859FF4F8491F901E458FF4F14917E
:100BB000F901E057FF4F04910023C9F0882321F089
:100BC00069830E9465056981E02FF0E0EE0FFF1F49
:100BD000EC55FF4FA591B4919FB7F8948C9161119A
:100BE00003C01095812301C0812B8C939FBF0F9070
:100BF000DF91CF911F910F9108951F920F920FB621
:100C00000F9211242F933F938F939F93AF93BF9392
:100C100080918A0190918B01A0918C01B0918D01FE
:100C20003091890123E0230F2D3720F40196A11D77
:100C3000B11D05C026E8230F0296A11DB11D20930A
:100C4000890180938A0190938B01A0938C01B093CA
:100C50008D0180918E0190918F01A0919001B091B2
:100C600091010196A11DB11D80938E0190938F017A
:100C7000A0939001B0939101BF91AF919F918F91FB
:100C80003F912F910F900FBE0F901F9018952FB787
:100C9000F89460918A0170918B0180918C01909100
:100CA0008D012FBF08953FB7F89480918E019091E8
:100CB0008F01A0919001B091910126B5A89B05C02C
:100CC0002F3F19F00196A11DB11D3FBF6627782F58
:100CD000892F9A2F620F711D811D911D42E0660FB1
:100CE000771F881F991F4A95D1F70895CF92DF92F9
:100CF000EF92FF92CF93DF936B017C010E9453062A
:100D0000EB01C114D104E104F10479F00E9453060F
:100D10006C1B7D0B683E7340A0F381E0C81AD108BC
:100D2000E108F108C851DC4FECCFDF91CF91FF9083
:100D3000EF90DF90CF900895789484B5826084BD61
:100D400084B5816084BD85B5826085BD85B58160CF
:100D500085BDEEE6F0E0808181608083E1E8F0E02F
:100D60001082808182608083808181608083E0E85E
:100D7000F0E0808181608083E1EBF0E0808184603D
:100D80008083E0EBF0E0808181608083EAE7F0E03F
:100D900080818460808380818260808380818160A3
:100DA00080838081806880831092C10008950E94B2
:100DB0009C060E947901C0E0D0E00E948D0120973E
:100DC000E1F30E940000F9CF009729F0BC0180E018
:100DD00090E00C9430080895CF93DF9300D000D0BA
:100DE000CDB7DEB79B01AC01611571058105910599
:100DF00069F069833A834B835C830E942B082981C5
:100E00003A814B815C810E94A80703C060E070E0DA
:100E1000CB010F900F900F900F90DF91CF9108951D
:100E20004F925F926F927F92AF92BF92CF92DF927A
:100E3000EF92FF920F931F93CF93DF93CDB7DEB75F
:100E400029013A01621B730B840B950B29893A899E
:100E50004B895C892A193B094C095D09298B3A8B1E
:100E60004B8B5C8B9B01AC0169897A898B899C894E
:100E70000E946207E418F50806091709A8019701FE
:100E80000E94A8072A0D3B1D4C1D5D1DCA01B9011A
:100E9000DF91CF911F910F91FF90EF90DF90CF9056
:100EA000BF90AF907F906F905F904F9008950E9499
:100EB000C707A59F900DB49F900DA49F800D911D15
:100EC00011240895DB018F939F930E945707BF91D0
:100ED000AF91A29F800D911DA39F900DB29F900D89
:100EE00011240895AA1BBB1B51E107C0AA1FBB1FF9
:100EF000A617B70710F0A61BB70B881F991F5A95A6
:100F0000A9F780959095BC01CD010895A1E21A2E14
:100F1000AA1BBB1BFD010DC0AA1FBB1FEE1FFF1F9D
:100F2000A217B307E407F50720F0A21BB30BE40BED
:100F3000F50B661F771F881F991F1A9469F7609534
:100F40007095809590959B01AC01BD01CF010895EE
:100F5000052E97FB1EF400940E94BF0757FD07D093
:100F60000E94860707FC03D04EF40C94BF075095EF
:100F70004095309521953F4F4F4F5F4F0895909585
:100F80008095709561957F4F8F4F9F4F0895A29FD9
:100F9000B001B39FC001A39F700D811D1124911D4D
:100FA000B29F700D811D1124911D0895EE0FFF1F3A
:100FB0000590F491E02D09948F929F92AF92BF9289
:100FC000CF92DF92EF92FF92CF93DF93EC01688193
:100FD00079818A819B81611571058105910521F4D3
:100FE00064E279ED8BE597E02DE133EF41E050E0ED
:100FF0000E94A80749015A019B01AC01A7EAB1E48C
:101000000E9457076B017C01ACEEB4EFA50194017F
:101010000E945208C60ED71EE81EF91EF7FE06C033
:1010200081E0C81AD108E10880E8F80AC882D982AC
:10103000EA82FB82C701B6019F77DF91CF91FF90D3
:10104000EF90DF90CF90BF90AF909F908F900895DA
:101050000E94DC07089580E091E00E94DC0708957B
:10106000609300017093010180930201909303014A
:101070000895F999FECF92BD81BDF89A992780B560
:101080000895262FF999FECF1FBA92BD81BD20BDCC
:101090000FB6F894FA9AF99A0FBE01960895B7FF21
:1010A0000C9457070E945707821B930B0895F894DE
:0210B000FFCF70
:1010B20001000000140014000000140000001400DD
:1010C20000001400000001010101030405060102F1
:1010D20002030405060708090A0C102040800100DB
:00000001FF
